:100000000C9446000C9465000C9465000C946500FB
:100010000C9465000C9465000C9465000C946500CC
:100020000C9465000C9465000C9465000C946500BC
:100030000C9465000C94A3000C9465000C9465006E
:100040000C9465000C9465000C9465000C9465009C
:100050000C9465000C9465000C9465000C9465008C
:100060000C9465000C9465000C9465000C9465007C
:100070000C9465000C9465000C9465000C9465006C
:100080000C9465000C9465000C94650011241FBE4F
:10009000CFEFD0E4DEBFCDBF11E0A0E0B1E0E8E6F5
:1000A000F4E000E00BBF02C007900D92A231B1074F
:1000B000D9F721E0A2E1B1E001C01D92AC31B20755
:1000C000E1F70E9418020C9432020C940000CF93C6
:1000D000C82F8A3019F48DE00E9467008091C0001B
:1000E00085FFFCCFC093C60080E090E0CF910895DB
:1000F0008BE0809381008DE790E09093890080935E
:10010000880082E080936F00109285001092840036
:100110008091000190910101A0910201B091030131
:100120008093150190931601A0931701B0931801C5
:100130008FB780688FBF089510928100089581E085
:100140008093190108951F920F920FB60F921124F8
:100150000BB60F922F933F934F935F936F937F93C1
:100160008F939F93AF93BF93EF93FF93809115016C
:1001700090911601A0911701B09118010197A10962
:10018000B1098093150190931601A0931701B093C4
:100190001801892B8A2B8B2B91F40E949F00809150
:1001A000000190910101A0910201B091030180939F
:1001B000150190931601A0931701B0931801FF91B8
:1001C000EF91BF91AF919F918F917F916F915F91CF
:1001D0004F913F912F910F900BBE0F900FBE0F903C
:1001E0001F901895609300017093010180930201A4
:1001F000909303016093150170931601809317018A
:1002000090931801089580B18095837080931201B6
:1002100020911A0130911B012230310509F442C0AE
:1002200038F42115310569F021303105B9F0B7C036
:100230002330310509F463C02430310509F48CC042
:10024000AEC087E08093130185B91092140181E05C
:1002500090E090931B0180931A01A1C0813039F482
:1002600082E090E090931B0180931A0118C08230C5
:1002700039F483E090E090931B0180931A010FC042
:10028000833039F484E090E090931B0180931A014D
:1002900006C081E090E090931B0180931A011092B8
:1002A00014017DC0813061F4809114018F5F8093CF
:1002B000140182E090E090931B0180931A016FC0BB
:1002C000823049F41092140183E090E090931B0176
:1002D00080931A0164C0833049F41092140184E0C1
:1002E00090E090931B0180931A0159C01092140161
:1002F00081E090E090931B0180931A0150C08130FF
:1003000049F41092140182E090E090931B018093D5
:100310001A0145C0823061F4809114018F5F80938F
:10032000140183E090E090931B0180931A0137C081
:10033000833049F41092140184E090E090931B0103
:1003400080931A012CC01092140181E090E09093E8
:100350001B0180931A0123C0813039F482E090E0C0
:1003600090931B0180931A0118C0823039F483E006
:1003700090E090931B0180931A010FC0833039F4F1
:1003800084E090E090931B0180931A0106C081E005
:1003900090E090931B0180931A01109214018091B8
:1003A0001A0190911B018330910519F18430910558
:1003B000D9F10297E1F5209114018DEC289F812D50
:1003C0001124869586958695880F982F990F990FF9
:1003D000890F28130AC0809113018F5F8093130146
:1003E0008A3018F089E0809313018091130185B958
:1003F0000895209114018DEC289F812D112486955C
:1004000086958695880F982F990F990F890F281335
:1004100007C080911301882319F081508093130144
:100420008091130185B908951092130115B80895AC
:100430008FEF84B915B811B882B910921B011092D0
:100440001A0164E670E080E090E00E94F2000E94F1
:1004500078000E940301809119018823E1F3109232
:080460001901F7CFF894FFCF5A
:10046800010000000000000200000000670000001A
:02047800000082
:00000001FF
