:100000000C9446000C9465000C9465000C946500FB
:100010000C9465000C9465000C9465000C946500CC
:100020000C9465000C9465000C9465000C946500BC
:100030000C9465000C94B4000C9465000C9465005D
:100040000C9465000C9465000C9465000C9465009C
:100050000C9465000C9465000C9465000C9465008C
:100060000C9465000C9465000C9465000C9465007C
:100070000C9465000C9465000C9465000C9465006C
:100080000C9465000C9465000C94650011241FBE4F
:10009000CFEFD0E4DEBFCDBF11E0A0E0B1E0E2E001
:1000A000F5E000E00BBF02C007900D92A431B1074C
:1000B000D9F721E0A4E1B1E001C01D92A932B20755
:1000C000E1F70E9425020C947F020C940000CF936C
:1000D000C82F8A3019F48DE00E9467008091C0001B
:1000E00085FFFCCFC093C60080E090E0CF910895DB
:1000F00060930201709303018093040190930501C2
:100100006093150170931601809317019093180165
:1001100008958BE0809381008DE790E090938900B3
:100120008093880082E080936F0010928500109287
:1001300084008091020190910301A0910401B0918B
:1001400005018093150190931601A0931701B093B8
:1001500018018FB780688FBF0895109281000895AD
:1001600081E08093190108951F920F920FB60F92AC
:1001700011240BB60F922F933F934F935F936F937E
:100180007F938F939F93AF93BF93EF93FF93809150
:10019000150190911601A0911701B09118010197D6
:1001A000A109B1098093150190931601A09317013D
:1001B000B0931801892B8A2B8B2B91F40E94B000ED
:1001C0008091020190910301A0910401B091050179
:1001D0008093150190931601A0931701B093180115
:1001E000FF91EF91BF91AF919F918F917F916F910F
:1001F0005F914F913F912F910F900BBE0F900FBECB
:100200000F901F90189580912101909122010097E5
:1002100019F0019771F01DC010921E0181E090E06D
:10022000909301018093000190932201809321011A
:1002300014C08091000190910101019690930101F9
:100240008093000181E090E090932201809321014E
:1002500004C01092220110922101809121019091FD
:1002600022010197C1F480910001909101016AE09F
:1002700070E00E945702019721F481E080931E01F3
:1002800002C010921E01809114018E7F90911E0178
:10029000892B80931401089580B180958695869569
:1002A000869580931D0180912501909126010097EC
:1002B00019F0019751F010C010921C0181E090E0FC
:1002C00090932601809325010BC081E090E09093EC
:1002D00026018093250104C0109226011092250169
:1002E0008091250190912601019791F480911D0143
:1002F000882321F082E080931C0102C010921C012F
:10030000809114018D7F90911C01892B80931401A1
:10031000089580912701909128018130910569F01D
:1003200018F0029701F134C010921B0181E090E0B7
:1003300090932801809327012BC08091140181FFA5
:100340000BC010921A0110921B0182E090E0909372
:100350002801809327011CC081E090E09093280140
:100360008093270115C08091140181FF07C082E0AE
:1003700090E090932801809327010AC081E090E0EB
:10038000909328018093270110921A0110921B016B
:1003900080912701909128018130910519F00297F1
:1003A00051F0089580911401837090911B01892B65
:1003B00080931401089580B18095887F90911A01EF
:1003C000981710F480931A0180911A0180931B01F1
:1003D000909114019370892B80931401089580915A
:1003E000230190912401892B21F010922401109275
:1003F0002301089580911F0190912001009719F029
:10040000019749F00FC081E090E090932001809324
:100410001F0115B80BC081E090E0909320018093FC
:100420001F0104C01092200110921F0180911F0132
:1004300090912001009719F0019719F0089515B8CF
:1004400008958091140185B9089511B88FEF82B98C
:1004500084B915B864E670E080E090E00E9478000E
:100460000E9489001092220110922101109226010F
:100470001092250110922801109227011092240158
:10048000109223011092200110921F010E9403017B
:100490000E944C010E9489010E94EF010E94FA0112
:1004A000809119018823E1F310921901EFCF97FB96
:1004B000072E16F4009407D077FD09D00E946B0236
:1004C00007FC05D03EF4909581959F4F0895709557
:1004D00061957F4F0895AA1BBB1B51E107C0AA1F5E
:1004E000BB1FA617B70710F0A61BB70B881F991FD5
:1004F0005A95A9F780959095BC01CD010895F8947F
:02050000FFCF2B
:10050200010001000000000000020000000067007E
:0405120000000000E5
:00000001FF
