:100000000C9446000C9465000C9465000C946500FB
:100010000C9465000C9465000C9465000C946500CC
:100020000C9465000C9465000C9465000C946500BC
:100030000C9465000C9465000C9465000C946500AC
:100040000C9465000C9465000C9465000C9465009C
:100050000C9465000C9465000C9465000C9465008C
:100060000C9465000C9465000C9465000C9465007C
:100070000C9465000C9465000C9465000C9465006C
:100080000C9465000C9465000C94650011241FBE4F
:10009000CFEFD0E4DEBFCDBF11E0A0E0B1E0E0ECF7
:1000A000F1E000E00BBF02C007900D92A631B1074E
:1000B000D9F721E0A6E1B1E001C01D92AB31B20752
:1000C000E1F70E94D2000C94DE000C940000CF9364
:1000D000C82F8A3019F48DE00E9467008091C0001B
:1000E00085FFFCCFC093C60080E090E0CF910895DB
:1000F00090B181E0892781708093170120911901C7
:1001000030911A012130310599F020F0223031056B
:10011000F9F037C010921601809100018093180108
:1001200085B981E090E090931A018093190129C06C
:10013000882339F082E090E090931A0180931901AE
:1001400020C081E090E090931A018093190119C0BA
:10015000882339F082E090E090931A01809319018E
:1001600010C080911601863020F48F5F80931601B5
:1001700002C01092160181E090E090931A018093E2
:1001800019018091190190911A010197029748F481
:10019000E0911601F0E0E050FF4F8081809318015C
:1001A00085B9089511B88FEF82B984B915B8109246
:1001B0001A01109219010E947800FDCFF894FFCF28
:1001C00000152A03300C3F00000002000000006709
:0601D00000000000000029
:00000001FF
