:100000000C9446000C9465000C9465000C946500FB
:100010000C9465000C9465000C9465000C946500CC
:100020000C9465000C9465000C9465000C946500BC
:100030000C9465000C9444010C9465000C946500CC
:100040000C9465000C9465000C9465000C9465009C
:100050000C9465000C9465000C9465000C9465008C
:100060000C9465000C9465000C9465000C9465007C
:100070000C9465000C9465000C9465000C9465006C
:100080000C9465000C9465000C94650011241FBE4F
:10009000CFEFD0E4DEBFCDBF11E0A0E0B1E0E4EDF2
:1000A000F6E000E00BBF02C007900D92AA30B10746
:1000B000D9F721E0AAE0B1E001C01D92A732B20752
:1000C000E1F70E9494020C9468030C94000040E055
:1000D00050E00CC000002F5F3F4F02C020E030E036
:1000E000273063E03607B4F34F5F5F4F4817590777
:1000F000ACF308959BB19F7B9BB985B98BB18068A8
:100100008BB900008BB18F778BB982E090E00E94B1
:100110006700089581E00E947A000895813120F4FB
:1001200081580E947A00089581550E947A000895AE
:1001300084E690E00E94670088E30E947A0086E0EF
:100140000E947A008FE00E947A0081E00E947A008B
:100150008AE090E00E94670008959BB190649BB98B
:1001600085B98BB180688BB900008BB18F778BB963
:1001700081E090E00E9467000895EF92FF920F9354
:100180001F93CF93DF93182FEB010E948A000EC0BC
:1001900001E0010F812F0E948E007E018FEFE81A8F
:1001A000F80A88810E94AD00102FE7018881811133
:1001B000EFCFDF91CF911F910F91FF90EF900895B6
:1001C00080910A0190910B018A33910540F48033AC
:1001D000910548F40097C9F0839791F404C08154C5
:1001E0009109059768F469E071E081E00E94BD0023
:1001F00081E00E948E0080910A010E94AD0005C03E
:1002000064E071E081E00E94BD0080E090E008952C
:1002100060930001709301018093020190930301A8
:1002200060930C0170930D0180930E0190930F0168
:1002300008958BE0809381008DE790E09093890092
:100240008093880082E080936F0010928500109266
:1002500084008091000190910101A0910201B09170
:10026000030180930C0190930D01A0930E01B093B4
:100270000F018FB780688FBF089510928100089595
:1002800081E08093100108951F920F920FB60F9294
:1002900011240BB60F922F933F934F935F936F935D
:1002A0007F938F939F93AF93BF93EF93FF9380912F
:1002B0000C0190910D01A0910E01B0910F010197D9
:1002C000A109B10980930C0190930D01A0930E0137
:1002D000B0930F01892B8A2B8B2B91F40E94400144
:1002E0008091000190910101A0910201B091030160
:1002F00080930C0190930D01A0930E01B0930F0118
:10030000FF91EF91BF91AF919F918F917F916F91ED
:100310005F914F913F912F910F900BBE0F900FBEA9
:100320000F901F901895442349F021E030E002C05F
:10033000220F331F6A95E2F7822B089521E030E007
:1003400002C0220F331F6A95E2F720958223089599
:1003500021E030E002C0220F331F6A95E2F78223CA
:10036000089540E064E08FEF0E94930188B9000097
:1003700086B160E080950E94A801811180C086B19D
:1003800061E080950E94A80181117BC086B162E086
:1003900080950E94A801811176C086B163E08095A6
:1003A0000E94A801811171C040E065E08FEF0E94BA
:1003B000930188B9000086B160E080950E94A80191
:1003C000811165C086B161E080950E94A80181110C
:1003D00060C086B162E080950E94A80181115BC077
:1003E00086B163E080950E94A801811156C040E06B
:1003F00066E08FEF0E94930188B9000086B160E04B
:1004000080950E94A80181114AC086B161E0809563
:100410000E94A801811145C086B162E080950E94CA
:10042000A801811140C086B163E080950E94A801B7
:1004300081113BC040E067E08FEF0E94930188B9D3
:10044000000086B160E080950E94A80181112FC054
:1004500086B161E080950E94A80181112AC086B111
:1004600062E080950E94A801811125C086B163E0F9
:1004700080950E94A8018823F9F084E4089581E31F
:10048000089584E3089587E308958AE2089582E356
:10049000089585E3089588E3089580E3089583E34C
:1004A000089586E3089589E3089583E2089581E439
:1004B000089582E4089583E408950E94B10190E0D4
:1004C00090930B0180930A0180E090E008950F93D0
:1004D0001F93CF93DF93B62FA72FF82FE92F022F6B
:1004E000132FD42FC52F04C0062F172FD82FC92F95
:1004F0006B2F7A2F8F2F9E2F202F312F4D2F5C2F78
:100500000E944603B02FA12FFD2FEC2F611571051E
:100510008105910549F7602F712F8D2F9C2FDF9159
:10052000CF911F910F910895CF93DF9300D000D00A
:10053000CDB7DEB780EF87B98FE088B98FEF84B988
:1005400015B88AB91BB8ACE1B1E0BA83A983E1E17F
:10055000F1E0FC83EB838C9342E350E060E070E0D9
:1005600011964D935D936D937C93149715964D93CF
:100570005D936D937C9318972DE532E01A963C932A
:100580002E93199780838AE090E0A0E0B0E0818309
:100590009283A383B48385839683A783B08780EEF9
:1005A00090E09287818701E010E00F2EF2E38F2E1A
:1005B000912CA12CB12CF02D18C0F801EE0FFF1FCB
:1005C00081E090E08C0F9D1FE80FF91F0190F081F2
:1005D000E02D2181328143815481C501B4010E9403
:1005E00067024B015C010F5F1F4F0230110528F3BA
:1005F000C501B4010E9408010E9419010E949800DF
:10060000E12CF12C38C0F701EE0FFF1FA1E0B0E0A4
:10061000AC0FBD1FEA0FFB1F00811181F80145815E
:1006200056816781708581819281A381B481481749
:1006300059076A077B0779F40184F285E02DD80118
:100640008C91082E000C990B0995F8018083158276
:10065000168217821086F80185819681A781B08560
:10066000880D991DAA1DBB1D85839683A783B0871E
:10067000FFEFEF1AFF0A82E0E816F10420F2809102
:1006800010018823E1F310921001BACFA1E21A2ED3
:10069000AA1BBB1BFD010DC0AA1FBB1FEE1FFF1F26
:1006A000A217B307E407F50720F0A21BB30BE40B76
:1006B000F50B661F771F881F991F1A9469F76095BD
:1006C0007095809590959B01AC01BD01CF01089577
:0406D000F894FFCFCC
:0A06D400010000004552524F520091
:00000001FF
