:100000000C9446000C9465000C9465000C946500FB
:100010000C9465000C9465000C9465000C946500CC
:100020000C9465000C9465000C9465000C946500BC
:100030000C9465000C9465000C9465000C946500AC
:100040000C9465000C9465000C9465000C9465009C
:100050000C9465000C9465000C9465000C9465008C
:100060000C9465000C9465000C9465000C9465007C
:100070000C9465000C9465000C9465000C9465006C
:100080000C9465000C9465000C94650011241FBE4F
:10009000CFEFD0E4DEBFCDBF11E0A0E0B1E0ECE6F1
:1000A000F4E000E00BBF02C007900D92A031B10751
:1000B000D9F721E0A0E1B1E001C01D92A431B2075F
:1000C000E1F70E947E000C9434020C940000CF9360
:1000D000C82F8A3019F48DE00E9467008091C0001B
:1000E00085FFFCCFC093C60080E090E0CF910895DB
:1000F000EAE7F0E08081806E8083089511B88FEF89
:1001000082B984B915B80E947800009178001091E6
:1001100079001093110100931001C0910001D0915A
:100120000101D695C795D695C795D695C795D09315
:100130001301C0931201CE01880F991F880F991FD8
:10014000880F991F0817190718F080E885B9DDCFC7
:10015000CE01880F991F880F991F880F991F8C1B3C
:100160009D0B0817190718F080E485B9CECFCE0192
:10017000880F991F8C0F9D1F880F991F081719074B
:1001800018F080E285B9C1CFCE01880F991F880F82
:10019000991F8C0F9D1F0817190718F080E185B96A
:1001A000B4CFB80180E090E00E9410016B017C01A7
:1001B000BE0180E090E00E9410014B015C0120E054
:1001C00030E040E950E40E9452019B01AC01C701BC
:1001D000B6010E944D0188231CF088E085B995CFB7
:1001E000CC0FDD1FCC0FDD1F0C171D0718F084E0AE
:1001F00085B98BCF20E030E040E650E4C501B40182
:100200000E9452019B01AC01C701B6010E944D0141
:1002100088231CF082E085B978CF81E085B975CF5D
:10022000E89409C097FB3EF4909580957095619590
:100230007F4F8F4F9F4F9923A9F0F92F96E9BB2746
:100240009395F695879577956795B795F111F8CFC2
:10025000FAF4BB0F11F460FF1BC06F5F7F4F8F4F2D
:100260009F4F16C0882311F096E911C0772321F023
:100270009EE8872F762F05C0662371F096E8862FBB
:1002800070E060E02AF09A95660F771F881FDAF712
:10029000880F9695879597F908950E94BF0108F4F5
:1002A0008FEF08950E9465010C94FA010E94EC0101
:1002B00038F00E94F30120F0952311F00C94E30133
:1002C0000C94E90111240C942E020E940B0270F38D
:1002D000959FC1F3950F50E0551F629FF001729FEB
:1002E000BB27F00DB11D639FAA27F00DB11DAA1FFA
:1002F000649F6627B00DA11D661F829F2227B00D47
:10030000A11D621F739FB00DA11D621F839FA00DD1
:10031000611D221F749F3327A00D611D231F849F21
:10032000600D211D822F762F6A2F11249F57504078
:100330009AF0F1F088234AF0EE0FFF1FBB1F661FF3
:10034000771F881F91505040A9F79E3F510580F0BC
:100350000C94E3010C942E025F3FE4F3983ED4F337
:10036000869577956795B795F795E7959F5FC1F760
:10037000FE2B880F911D9695879597F90895990FF3
:100380000008550FAA0BE0E8FEEF16161706E8075F
:10039000F907C0F012161306E407F50798F0621B80
:1003A000730B840B950B39F40A2661F0232B242B55
:1003B000252B21F408950A2609F4A140A6958FEF74
:1003C000811D811D089597F99F6780E870E060E0C6
:1003D00008959FEF80EC089500240A9416161706DE
:1003E00018060906089500240A9412161306140626
:1003F00005060895092E0394000C11F4882352F089
:10040000BB0F40F4BF2B11F460FF04C06F5F7F4F40
:100410008F4F9F4F089557FD9058440F551F59F027
:100420005F3F71F04795880F97FB991F61F09F3FE1
:1004300079F087950895121613061406551FF2CF0A
:100440004695F1DF08C0161617061806991FF1CF5A
:1004500086957105610508940895E894BB27662781
:0C0460007727CB0197F90895F894FFCF9F
:10046C00FF00000000020000000067000000000018
:00000001FF
