:100000000C9446000C9465000C9465000C946500FB
:100010000C9465000C9465000C9465000C946500CC
:100020000C9465000C9465000C9465000C946500BC
:100030000C9465000C9465000C9465000C946500AC
:100040000C9465000C9465000C9465000C9465009C
:100050000C9465000C9465000C9465000C9465008C
:100060000C9465000C9465000C9465000C9465007C
:100070000C9465000C9465000C9465000C9465006C
:100080000C9465000C9465000C94650011241FBE4F
:10009000CFEFD0E4DEBFCDBF11E0A0E0B1E0E4E4FB
:1000A000F7E000E00BBF02C007900D92AE30B10741
:1000B000D9F721E0AEE0B1E001C01D92A531B20751
:1000C000E1F70E94FE010C94A0030C94000040E0B4
:1000D00050E00CC000002F5F3F4F02C020E030E036
:1000E000273063E03607B4F34F5F5F4F4817590777
:1000F000ACF308959BB19F7B9BB988B98BB18068A5
:100100008BB900008BB18F778BB982E090E00E94B1
:100110006700089581E00E947A000895813120F4FB
:1001200081580E947A00089581550E947A000895AE
:1001300084E690E00E94670088E30E947A0086E0EF
:100140000E947A008FE00E947A0081E00E947A008B
:100150008AE090E00E94670008959BB190649BB98B
:1001600088B98BB180688BB900008BB18F778BB960
:1001700081E090E00E9467000895EF92FF920F9354
:100180001F93CF93DF93182FEB010E948A000EC0BC
:1001900001E0010F812F0E948E007E018FEFE81A8F
:1001A000F80A88810E94AD00102FE7018881811133
:1001B000EFCFDF91CF911F910F91FF90EF900895B6
:1001C000CF93C82F8A3019F48DE00E94E00080910F
:1001D000C00085FFFCCFC093C60080E090E0CF91C7
:1001E0000895CF92DF92EF92FF926B017C016091B4
:1001F0000F01709110018091110190911201A701DE
:1002000096010E940C02882309F458C020E030E0D7
:10021000A901C701B6010E940C02811106C0E1E9E3
:10022000F0E080818870808305C0E1E9F0E08081A2
:100230008360808328E539E344E75FE3C701B601C3
:100240000E940C0288233CF48FEF9FEF909399005B
:100250008093980027C020E034E244EF56E4C701C1
:10026000B6010E942E0318162CF4109299001092D9
:10027000980018C020E030E040E053E4C701B60128
:100280000E9433039B01AC0160E074E284EF9AE4C6
:100290000E9411020E9483026150710970939900BB
:1002A000609398001092950010929400C0920F01F4
:1002B000D0921001E0921101F0921201FF90EF90A4
:1002C000DF90CF90089580E4809390008BE080933E
:1002D000910060E070E0CB010E94F100089510925F
:1002E000900010929100089580B18095877080935E
:1002F0000E01209113013091140121303105A1F03C
:1003000038F02230310501F123303105E1F141C0EF
:1003100060E070E0CB010E94F10081E090E09093FA
:1003200014018093130135C0882339F082E090E0F6
:1003300090931401809313012CC081E090E090937E
:1003400014018093130125C0811107C083E090E060
:1003500090931401809313011CC0833031F08530D9
:1003600021F0863011F0873039F483E090E09093EB
:100370001401809313010DC082E090E0909314016A
:100380008093130106C081E090E090931401809364
:10039000130180911301909114018230910559F05D
:1003A0008330910529F1019741F560E070E0CB01C0
:1003B0000E94F100089580910E01813039F46DE3BF
:1003C0007AEA82E893E40E94F1000895823039F4D9
:1003D0006BE774ED82E993E40E94F10008958430A4
:1003E00061F46CEE71ED84EA93E40E94F1000895EB
:1003F00060E070E0CB010E94F100089511B88FEF2A
:1004000082B984B915B810921401109213010E9498
:1004100063010E947401FDCF0E94B90208F481E0DB
:1004200008950E9425020C94F4020E94ED0258F0F7
:100430000E94E60240F029F45F3F29F00C94DD02AF
:1004400051110C9428030C94E3020E94050368F3F5
:100450009923B1F3552391F3951B550BBB27AA277D
:1004600062177307840738F09F5F5F4F220F331FB7
:10047000441FAA1FA9F335D00E2E3AF0E0E832D07F
:1004800091505040E695001CCAF72BD0FE2F29D082
:10049000660F771F881FBB1F261737074807AB0754
:1004A000B0E809F0BB0B802DBF01FF2793585F4FC9
:1004B0003AF09E3F510578F00C94DD020C9428032D
:1004C0005F3FE4F3983ED4F3869577956795B795AB
:1004D000F7959F5FC9F7880F911D9695879597F9B6
:1004E0000895E1E0660F771F881FBB1F621773072F
:1004F0008407BA0720F0621B730B840BBA0BEE1F44
:1005000088F7E09508950E948A026894B1110C94CE
:10051000280308950E940D0388F09F5798F0B92F83
:100520009927B751B0F0E1F0660F771F881F991F28
:100530001AF0BA95C9F714C0B13091F00E942703A0
:10054000B1E008950C942703672F782F8827B85FB0
:1005500039F0B93FCCF3869577956795B395D9F780
:100560003EF490958095709561957F4F8F4F9F4F8A
:100570000895990F0008550FAA0BE0E8FEEF161634
:100580001706E807F907C0F012161306E407F50787
:1005900098F0621B730B840B950B39F40A2661F0FB
:1005A000232B242B252B21F408950A2609F4A1409E
:1005B000A6958FEF811D811D089597F99F6780E8AB
:1005C00070E060E008959FEF80EC089500240A94A5
:1005D0001616170618060906089500240A9412161E
:1005E0001306140605060895092E0394000C11F451
:1005F000882352F0BB0F40F4BF2B11F460FF04C0FE
:100600006F5F7F4F8F4F9F4F089557FD9058440F56
:10061000551F59F05F3F71F04795880F97FB991F61
:1006200061F09F3F79F0879508951216130614061E
:10063000551FF2CF4695F1DF08C0161617061806AB
:10064000991FF1CF86957105610508940895E89486
:10065000BB2766277727CB0197F908950E94B90237
:1006600008F48FEF08950E9446030C94F4020E9450
:10067000E60238F00E94ED0220F0952311F00C9470
:10068000DD020C94E30211240C9428030E9405035C
:1006900070F3959FC1F3950F50E0551F629FF001D5
:1006A000729FBB27F00DB11D639FAA27F00DB11DEE
:1006B000AA1F649F6627B00DA11D661F829F222777
:1006C000B00DA11D621F739FB00DA11D621F839FFE
:1006D000A00D611D221F749F3327A00D611D231FD4
:1006E000849F600D211D822F762F6A2F11249F5722
:1006F00050409AF0F1F088234AF0EE0FFF1FBB1F25
:10070000661F771F881F91505040A9F79E3F5105E3
:1007100080F00C94DD020C9428035F3FE4F3983ED4
:10072000D4F3869577956795B795F795E7959F5F8D
:10073000C1F7FE2B880F911D9695879597F908951F
:04074000F894FFCF5B
:0E0744000000000200000000E00000000000C5
:00000001FF
