:100000000C9446000C9465000C9465000C946500FB
:100010000C9465000C9465000C9465000C946500CC
:100020000C9465000C9465000C9465000C946500BC
:100030000C9465000C9492000C9465000C9465007F
:100040000C9465000C9465000C9465000C9465009C
:100050000C9465000C9465000C9465000C9465008C
:100060000C9465000C9465000C9465000C9465007C
:100070000C9465000C9465000C9465000C9465006C
:100080000C9465000C9465000C94650011241FBE4F
:10009000CFEFD0E4DEBFCDBF11E0A0E0B1E0EAE4F5
:1000A000F4E000E00BBF02C007900D92A430B1074E
:1000B000D9F721E0A4E0B1E001C01D92A631B2075A
:1000C000E1F70E94F7010C9423020C9400008BE0EE
:1000D000809381008DE790E0909389008093880061
:1000E00082E080936F0010928500109284008091CE
:1000F000000190910101A0910201B0910301809350
:100100000B0190930C01A0930D01B0930E018FB7DA
:1001100080688FBF089510928100089581E08093D8
:100120000F0108951F920F920FB60F9211240BB674
:100130000F922F933F934F935F936F937F938F9380
:100140009F93AF93BF93EF93FF9380910B01909197
:100150000C01A0910D01B0910E010197A109B10907
:1001600080930B0190930C01A0930D01B0930E01AD
:10017000892B8A2B8B2B91F40E948E008091000199
:1001800090910101A0910201B091030180930B01B4
:1001900090930C01A0930D01B0930E01FF91EF918C
:1001A000BF91AF919F918F917F916F915F914F918F
:1001B0003F912F910F900BBE0F900FBE0F901F908D
:1001C0001895609300017093010180930201909350
:1001D000030160930B0170930C0180930D019093C8
:1001E0000E010895809112019091130181309105C3
:1001F00079F038F08230910551F1039709F446C047
:1002000063C081E090E090931301809312015CC081
:100210008091040190910501883E23E0920760F4EB
:1002200021E030E030931301209312010196909366
:1002300005018093040148C082E090E0909313018F
:100240008093120110920501109204013DC080912B
:10025000040190910501883E23E0920760F422E0BA
:1002600030E0309313012093120101969093050121
:100270008093040129C083E090E090931301809360
:10028000120110920501109204011EC08091040118
:1002900090910501883E23E0920760F423E030E06E
:1002A00030931301209312010196909305018093DE
:1002B00004010AC081E090E0909313018093120141
:1002C0001092050110920401809112019091130186
:1002D0008230910549F08330910551F0019759F42E
:1002E00081E080930901089582E0809309010895D7
:1002F00084E080930901089580911001909111018B
:100300008130910559F018F0029739F144C081E02D
:1003100090E090931101809310013DC080910601FF
:1003200090910701883E23E0920760F421E030E0DD
:10033000309311012093100101969093070180934F
:10034000060129C082E090E0909311018093100192
:1003500010920701109206011EC080910601909133
:100360000701883E23E0920760F422E030E03093FA
:1003700011012093100101969093070180930601CB
:100380000AC081E090E090931101809310011092D7
:1003900007011092060180911001909111018130A6
:1003A000910519F0029729F0089588E080930A01D9
:1003B000089510920A0108958091140190911501F9
:1003C000892B31F481E090E0909315018093140122
:1003D0008091140190911501019741F490910A01C7
:1003E00080910901892B8093080185B908958FEFC9
:1003F00084B915B8109213011092120110921101D4
:100400001092100110921501109214011092050122
:1004100010920401109207011092060161E070E051
:1004200080E090E00E94E1000E9467000E94F200DC
:100430000E947C010E94DC0180910F018823E1F37E
:0A04400010920F01F3CFF894FFCFE4
:04044A0001000000AD
:00000001FF
